{
  "contractName": "CodingNight",
  "abi": [
    {
      "constant": true,
      "inputs": [],
      "name": "name",
      "outputs": [
        {
          "name": "",
          "type": "string"
        }
      ],
      "payable": false,
      "stateMutability": "view",
      "type": "function"
    },
    {
      "constant": false,
      "inputs": [
        {
          "name": "spender",
          "type": "address"
        },
        {
          "name": "tokens",
          "type": "uint256"
        }
      ],
      "name": "approve",
      "outputs": [
        {
          "name": "",
          "type": "bool"
        }
      ],
      "payable": false,
      "stateMutability": "nonpayable",
      "type": "function"
    },
    {
      "constant": true,
      "inputs": [],
      "name": "totalSupply",
      "outputs": [
        {
          "name": "",
          "type": "uint256"
        }
      ],
      "payable": false,
      "stateMutability": "view",
      "type": "function"
    },
    {
      "constant": false,
      "inputs": [
        {
          "name": "from",
          "type": "address"
        },
        {
          "name": "to",
          "type": "address"
        },
        {
          "name": "tokens",
          "type": "uint256"
        }
      ],
      "name": "transferFrom",
      "outputs": [
        {
          "name": "",
          "type": "bool"
        }
      ],
      "payable": false,
      "stateMutability": "nonpayable",
      "type": "function"
    },
    {
      "constant": true,
      "inputs": [],
      "name": "decimals",
      "outputs": [
        {
          "name": "",
          "type": "uint8"
        }
      ],
      "payable": false,
      "stateMutability": "view",
      "type": "function"
    },
    {
      "constant": true,
      "inputs": [],
      "name": "_totalSupply",
      "outputs": [
        {
          "name": "",
          "type": "uint256"
        }
      ],
      "payable": false,
      "stateMutability": "view",
      "type": "function"
    },
    {
      "constant": true,
      "inputs": [
        {
          "name": "",
          "type": "address"
        },
        {
          "name": "",
          "type": "address"
        }
      ],
      "name": "allowed",
      "outputs": [
        {
          "name": "",
          "type": "uint256"
        }
      ],
      "payable": false,
      "stateMutability": "view",
      "type": "function"
    },
    {
      "constant": true,
      "inputs": [
        {
          "name": "",
          "type": "uint256"
        },
        {
          "name": "",
          "type": "uint256"
        }
      ],
      "name": "problemsSolutions",
      "outputs": [
        {
          "name": "sender",
          "type": "address"
        },
        {
          "name": "solution",
          "type": "string"
        }
      ],
      "payable": false,
      "stateMutability": "view",
      "type": "function"
    },
    {
      "constant": true,
      "inputs": [
        {
          "name": "tokenOwner",
          "type": "address"
        }
      ],
      "name": "balanceOf",
      "outputs": [
        {
          "name": "",
          "type": "uint256"
        }
      ],
      "payable": false,
      "stateMutability": "view",
      "type": "function"
    },
    {
      "constant": true,
      "inputs": [
        {
          "name": "",
          "type": "uint256"
        }
      ],
      "name": "solutionsCount",
      "outputs": [
        {
          "name": "",
          "type": "uint256"
        }
      ],
      "payable": false,
      "stateMutability": "view",
      "type": "function"
    },
    {
      "constant": true,
      "inputs": [],
      "name": "symbol",
      "outputs": [
        {
          "name": "",
          "type": "string"
        }
      ],
      "payable": false,
      "stateMutability": "view",
      "type": "function"
    },
    {
      "constant": false,
      "inputs": [
        {
          "name": "to",
          "type": "address"
        },
        {
          "name": "tokens",
          "type": "uint256"
        }
      ],
      "name": "transfer",
      "outputs": [
        {
          "name": "",
          "type": "bool"
        }
      ],
      "payable": false,
      "stateMutability": "nonpayable",
      "type": "function"
    },
    {
      "constant": true,
      "inputs": [],
      "name": "tokensLeft",
      "outputs": [
        {
          "name": "",
          "type": "uint256"
        }
      ],
      "payable": false,
      "stateMutability": "view",
      "type": "function"
    },
    {
      "constant": false,
      "inputs": [],
      "name": "buyTokens",
      "outputs": [],
      "payable": true,
      "stateMutability": "payable",
      "type": "function"
    },
    {
      "constant": true,
      "inputs": [],
      "name": "mainPerson",
      "outputs": [
        {
          "name": "",
          "type": "address"
        }
      ],
      "payable": false,
      "stateMutability": "view",
      "type": "function"
    },
    {
      "constant": true,
      "inputs": [
        {
          "name": "tokenOwner",
          "type": "address"
        },
        {
          "name": "spender",
          "type": "address"
        }
      ],
      "name": "allowance",
      "outputs": [
        {
          "name": "",
          "type": "uint256"
        }
      ],
      "payable": false,
      "stateMutability": "view",
      "type": "function"
    },
    {
      "constant": true,
      "inputs": [],
      "name": "main",
      "outputs": [
        {
          "name": "",
          "type": "address"
        }
      ],
      "payable": false,
      "stateMutability": "view",
      "type": "function"
    },
    {
      "constant": true,
      "inputs": [
        {
          "name": "",
          "type": "uint256"
        }
      ],
      "name": "problems",
      "outputs": [
        {
          "name": "id",
          "type": "uint256"
        },
        {
          "name": "ammount",
          "type": "uint256"
        },
        {
          "name": "isCompleted",
          "type": "bool"
        },
        {
          "name": "time",
          "type": "uint256"
        },
        {
          "name": "problem",
          "type": "string"
        },
        {
          "name": "title",
          "type": "string"
        },
        {
          "name": "category",
          "type": "string"
        },
        {
          "name": "owner",
          "type": "address"
        },
        {
          "name": "ammountSave",
          "type": "uint256"
        }
      ],
      "payable": false,
      "stateMutability": "view",
      "type": "function"
    },
    {
      "constant": true,
      "inputs": [],
      "name": "problemsCount",
      "outputs": [
        {
          "name": "",
          "type": "uint256"
        }
      ],
      "payable": false,
      "stateMutability": "view",
      "type": "function"
    },
    {
      "inputs": [],
      "payable": false,
      "stateMutability": "nonpayable",
      "type": "constructor"
    },
    {
      "anonymous": false,
      "inputs": [
        {
          "indexed": true,
          "name": "_from",
          "type": "address"
        },
        {
          "indexed": true,
          "name": "_to",
          "type": "address"
        },
        {
          "indexed": false,
          "name": "_value",
          "type": "uint256"
        }
      ],
      "name": "Transfer",
      "type": "event"
    },
    {
      "anonymous": false,
      "inputs": [
        {
          "indexed": true,
          "name": "_owner",
          "type": "address"
        },
        {
          "indexed": true,
          "name": "_spender",
          "type": "address"
        },
        {
          "indexed": false,
          "name": "_value",
          "type": "uint256"
        }
      ],
      "name": "Approval",
      "type": "event"
    },
    {
      "constant": false,
      "inputs": [
        {
          "name": "to",
          "type": "address"
        },
        {
          "name": "tokens",
          "type": "uint256"
        }
      ],
      "name": "transferProblem",
      "outputs": [
        {
          "name": "",
          "type": "bool"
        }
      ],
      "payable": false,
      "stateMutability": "nonpayable",
      "type": "function"
    },
    {
      "constant": false,
      "inputs": [
        {
          "name": "_ammount",
          "type": "uint256"
        },
        {
          "name": "_ammountSave",
          "type": "uint256"
        },
        {
          "name": "_time",
          "type": "uint256"
        },
        {
          "name": "_title",
          "type": "string"
        },
        {
          "name": "_problem",
          "type": "string"
        },
        {
          "name": "_category",
          "type": "string"
        }
      ],
      "name": "addProblem",
      "outputs": [],
      "payable": false,
      "stateMutability": "nonpayable",
      "type": "function"
    },
    {
      "constant": false,
      "inputs": [
        {
          "name": "_id",
          "type": "uint256"
        },
        {
          "name": "_solution",
          "type": "string"
        }
      ],
      "name": "sendSolution",
      "outputs": [],
      "payable": false,
      "stateMutability": "nonpayable",
      "type": "function"
    },
    {
      "constant": false,
      "inputs": [
        {
          "name": "_idProblem",
          "type": "uint256"
        },
        {
          "name": "_idSolution",
          "type": "uint256"
        }
      ],
      "name": "confirmSolution",
      "outputs": [],
      "payable": false,
      "stateMutability": "nonpayable",
      "type": "function"
    }
  ],
  "bytecode": "0x608060405260008060006101000a81548173ffffffffffffffffffffffffffffffffffffffff021916908373ffffffffffffffffffffffffffffffffffffffff1602179055503480156200005257600080fd5b506040518060400160405280600981526020017f48656c704d65506c7a00000000000000000000000000000000000000000000008152506040518060400160405280600381526020017f484d5000000000000000000000000000000000000000000000000000000000008152506012620f42408360069080519060200190620000dd929190620001bf565b508260079080519060200190620000f6929190620001bf565b5081600860006101000a81548160ff021916908360ff1602179055508160ff16600a0a6009819055506009548102600481905550600260003373ffffffffffffffffffffffffffffffffffffffff1673ffffffffffffffffffffffffffffffffffffffff168152602001908152602001600020546004540360058190555033600160006101000a81548173ffffffffffffffffffffffffffffffffffffffff021916908373ffffffffffffffffffffffffffffffffffffffff160217905550505050506200026e565b828054600181600116156101000203166002900490600052602060002090601f016020900481019282601f106200020257805160ff191683800117855562000233565b8280016001018555821562000233579182015b828111156200023257825182559160200191906001019062000215565b5b50905062000242919062000246565b5090565b6200026b91905b80821115620002675760008160009055506001016200024d565b5090565b90565b61202e806200027e6000396000f3fe6080604052600436106101405760003560e01c80638175fd21116100b6578063d167b4331161006f578063d167b4331461084e578063d16f822a14610a62578063dd62ed3e14610ab9578063dffeadd014610b3e578063eba4f36614610b95578063fd33d0a114610d7b57610140565b80638175fd211461065457806395d89b41146106a3578063a530708a14610733578063a9059cbb146107a6578063b31f8f9314610819578063d0febe4c1461084457610140565b8063313ce56711610108578063313ce567146103d85780633eaaf86b146104095780634e2bb025146104345780635c658165146104795780636cfaf649146104fe57806370a08231146105ef57610140565b806306fdde0314610145578063095ea7b3146101d557806318160ddd1461024857806323b872dd146102735780633058a3e414610306575b600080fd5b34801561015157600080fd5b5061015a610da6565b6040518080602001828103825283818151815260200191508051906020019080838360005b8381101561019a57808201518184015260208101905061017f565b50505050905090810190601f1680156101c75780820380516001836020036101000a031916815260200191505b509250505060405180910390f35b3480156101e157600080fd5b5061022e600480360360408110156101f857600080fd5b81019080803573ffffffffffffffffffffffffffffffffffffffff16906020019092919080359060200190929190505050610e44565b604051808215151515815260200191505060405180910390f35b34801561025457600080fd5b5061025d610f36565b6040518082815260200191505060405180910390f35b34801561027f57600080fd5b506102ec6004803603606081101561029657600080fd5b81019080803573ffffffffffffffffffffffffffffffffffffffff169060200190929190803573ffffffffffffffffffffffffffffffffffffffff16906020019092919080359060200190929190505050610f40565b604051808215151515815260200191505060405180910390f35b34801561031257600080fd5b506103d66004803603604081101561032957600080fd5b81019080803590602001909291908035906020019064010000000081111561035057600080fd5b82018360208201111561036257600080fd5b8035906020019184600183028401116401000000008311171561038457600080fd5b91908080601f016020809104026020016040519081016040528093929190818152602001838380828437600081840152601f19601f8201169050808301925050505050505091929192905050506111ab565b005b3480156103e457600080fd5b506103ed6112b5565b604051808260ff1660ff16815260200191505060405180910390f35b34801561041557600080fd5b5061041e6112c8565b6040518082815260200191505060405180910390f35b34801561044057600080fd5b506104776004803603604081101561045757600080fd5b8101908080359060200190929190803590602001909291905050506112ce565b005b34801561048557600080fd5b506104e86004803603604081101561049c57600080fd5b81019080803573ffffffffffffffffffffffffffffffffffffffff169060200190929190803573ffffffffffffffffffffffffffffffffffffffff169060200190929190505050611475565b6040518082815260200191505060405180910390f35b34801561050a57600080fd5b506105416004803603604081101561052157600080fd5b81019080803590602001909291908035906020019092919050505061149a565b604051808373ffffffffffffffffffffffffffffffffffffffff1673ffffffffffffffffffffffffffffffffffffffff16815260200180602001828103825283818151815260200191508051906020019080838360005b838110156105b3578082015181840152602081019050610598565b50505050905090810190601f1680156105e05780820380516001836020036101000a031916815260200191505b50935050505060405180910390f35b3480156105fb57600080fd5b5061063e6004803603602081101561061257600080fd5b81019080803573ffffffffffffffffffffffffffffffffffffffff169060200190929190505050611583565b6040518082815260200191505060405180910390f35b34801561066057600080fd5b5061068d6004803603602081101561067757600080fd5b81019080803590602001909291905050506115cc565b6040518082815260200191505060405180910390f35b3480156106af57600080fd5b506106b86115e4565b6040518080602001828103825283818151815260200191508051906020019080838360005b838110156106f85780820151818401526020810190506106dd565b50505050905090810190601f1680156107255780820380516001836020036101000a031916815260200191505b509250505060405180910390f35b34801561073f57600080fd5b5061078c6004803603604081101561075657600080fd5b81019080803573ffffffffffffffffffffffffffffffffffffffff16906020019092919080359060200190929190505050611682565b604051808215151515815260200191505060405180910390f35b3480156107b257600080fd5b506107ff600480360360408110156107c957600080fd5b81019080803573ffffffffffffffffffffffffffffffffffffffff169060200190929190803590602001909291905050506117ae565b604051808215151515815260200191505060405180910390f35b34801561082557600080fd5b5061082e611905565b6040518082815260200191505060405180910390f35b61084c61190b565b005b34801561085a57600080fd5b50610a60600480360360c081101561087157600080fd5b81019080803590602001909291908035906020019092919080359060200190929190803590602001906401000000008111156108ac57600080fd5b8201836020820111156108be57600080fd5b803590602001918460018302840111640100000000831117156108e057600080fd5b91908080601f016020809104026020016040519081016040528093929190818152602001838380828437600081840152601f19601f8201169050808301925050505050505091929192908035906020019064010000000081111561094357600080fd5b82018360208201111561095557600080fd5b8035906020019184600183028401116401000000008311171561097757600080fd5b91908080601f016020809104026020016040519081016040528093929190818152602001838380828437600081840152601f19601f820116905080830192505050505050509192919290803590602001906401000000008111156109da57600080fd5b8201836020820111156109ec57600080fd5b80359060200191846001830284011164010000000083111715610a0e57600080fd5b91908080601f016020809104026020016040519081016040528093929190818152602001838380828437600081840152601f19601f8201169050808301925050505050505091929192905050506119fd565b005b348015610a6e57600080fd5b50610a77611c42565b604051808273ffffffffffffffffffffffffffffffffffffffff1673ffffffffffffffffffffffffffffffffffffffff16815260200191505060405180910390f35b348015610ac557600080fd5b50610b2860048036036040811015610adc57600080fd5b81019080803573ffffffffffffffffffffffffffffffffffffffff169060200190929190803573ffffffffffffffffffffffffffffffffffffffff169060200190929190505050611c67565b6040518082815260200191505060405180910390f35b348015610b4a57600080fd5b50610b53611cee565b604051808273ffffffffffffffffffffffffffffffffffffffff1673ffffffffffffffffffffffffffffffffffffffff16815260200191505060405180910390f35b348015610ba157600080fd5b50610bce60048036036020811015610bb857600080fd5b8101908080359060200190929190505050611d14565b604051808a8152602001898152602001881515151581526020018781526020018060200180602001806020018673ffffffffffffffffffffffffffffffffffffffff1673ffffffffffffffffffffffffffffffffffffffff168152602001858152602001848103845289818151815260200191508051906020019080838360005b83811015610c6a578082015181840152602081019050610c4f565b50505050905090810190601f168015610c975780820380516001836020036101000a031916815260200191505b50848103835288818151815260200191508051906020019080838360005b83811015610cd0578082015181840152602081019050610cb5565b50505050905090810190601f168015610cfd5780820380516001836020036101000a031916815260200191505b50848103825287818151815260200191508051906020019080838360005b83811015610d36578082015181840152602081019050610d1b565b50505050905090810190601f168015610d635780820380516001836020036101000a031916815260200191505b509c5050505050505050505050505060405180910390f35b348015610d8757600080fd5b50610d90611f57565b6040518082815260200191505060405180910390f35b60068054600181600116156101000203166002900480601f016020809104026020016040519081016040528092919081815260200182805460018160011615610100020316600290048015610e3c5780601f10610e1157610100808354040283529160200191610e3c565b820191906000526020600020905b815481529060010190602001808311610e1f57829003601f168201915b505050505081565b600081600360003373ffffffffffffffffffffffffffffffffffffffff1673ffffffffffffffffffffffffffffffffffffffff16815260200190815260200160002060008573ffffffffffffffffffffffffffffffffffffffff1673ffffffffffffffffffffffffffffffffffffffff168152602001908152602001600020819055508273ffffffffffffffffffffffffffffffffffffffff163373ffffffffffffffffffffffffffffffffffffffff167f8c5be1e5ebec7d5bd14f71427d1e84f3dd0314c0f7b2291e5b200ac8c7c3b925846040518082815260200191505060405180910390a36001905092915050565b6000600454905090565b600081600260008673ffffffffffffffffffffffffffffffffffffffff1673ffffffffffffffffffffffffffffffffffffffff168152602001908152602001600020541015610f8e57600080fd5b81600360008673ffffffffffffffffffffffffffffffffffffffff1673ffffffffffffffffffffffffffffffffffffffff16815260200190815260200160002060003373ffffffffffffffffffffffffffffffffffffffff1673ffffffffffffffffffffffffffffffffffffffff16815260200190815260200160002054101561101757600080fd5b81600260008673ffffffffffffffffffffffffffffffffffffffff1673ffffffffffffffffffffffffffffffffffffffff1681526020019081526020016000206000828254039250508190555081600360008673ffffffffffffffffffffffffffffffffffffffff1673ffffffffffffffffffffffffffffffffffffffff16815260200190815260200160002060003373ffffffffffffffffffffffffffffffffffffffff1673ffffffffffffffffffffffffffffffffffffffff1681526020019081526020016000206000828254039250508190555081600260008573ffffffffffffffffffffffffffffffffffffffff1673ffffffffffffffffffffffffffffffffffffffff168152602001908152602001600020600082825401925050819055508273ffffffffffffffffffffffffffffffffffffffff168473ffffffffffffffffffffffffffffffffffffffff167fddf252ad1be2c89b69c2b068fc378daa952ba7f163c4a11628f55a4df523b3ef846040518082815260200191505060405180910390a3600190509392505050565b600082101580156111bd5750600a5482105b6111c657600080fd5b33600d60008481526020019081526020016000206000600c600086815260200190815260200160002054815260200190815260200160002060000160006101000a81548173ffffffffffffffffffffffffffffffffffffffff021916908373ffffffffffffffffffffffffffffffffffffffff16021790555080600d60008481526020019081526020016000206000600c6000868152602001908152602001600020548152602001908152602001600020600101908051906020019061128d929190611f5d565b50600c6000838152602001908152602001600020600081548092919060010191905055505050565b600860009054906101000a900460ff1681565b60045481565b3373ffffffffffffffffffffffffffffffffffffffff16600b600084815260200190815260200160002060070160009054906101000a900473ffffffffffffffffffffffffffffffffffffffff1673ffffffffffffffffffffffffffffffffffffffff161461133c57600080fd5b60001515600b600084815260200190815260200160002060020160009054906101000a900460ff1615151461137057600080fd5b6001600b600084815260200190815260200160002060020160006101000a81548160ff021916908315150217905550611419600d60008481526020019081526020016000206000600c600085815260200190815260200160002054815260200190815260200160002060000160009054906101000a900473ffffffffffffffffffffffffffffffffffffffff16600b600085815260200190815260200160002060010154611682565b50611470600b600084815260200190815260200160002060070160009054906101000a900473ffffffffffffffffffffffffffffffffffffffff16600b600085815260200190815260200160002060080154611682565b505050565b6003602052816000526040600020602052806000526040600020600091509150505481565b600d602052816000526040600020602052806000526040600020600091509150508060000160009054906101000a900473ffffffffffffffffffffffffffffffffffffffff1690806001018054600181600116156101000203166002900480601f0160208091040260200160405190810160405280929190818152602001828054600181600116156101000203166002900480156115795780601f1061154e57610100808354040283529160200191611579565b820191906000526020600020905b81548152906001019060200180831161155c57829003601f168201915b5050505050905082565b6000600260008373ffffffffffffffffffffffffffffffffffffffff1673ffffffffffffffffffffffffffffffffffffffff168152602001908152602001600020549050919050565b600c6020528060005260406000206000915090505481565b60078054600181600116156101000203166002900480601f01602080910402602001604051908101604052809291908181526020018280546001816001161561010002031660029004801561167a5780601f1061164f5761010080835404028352916020019161167a565b820191906000526020600020905b81548152906001019060200180831161165d57829003601f168201915b505050505081565b600081600260008573ffffffffffffffffffffffffffffffffffffffff1673ffffffffffffffffffffffffffffffffffffffff1681526020019081526020016000206000828254019250508190555081600260008060009054906101000a900473ffffffffffffffffffffffffffffffffffffffff1673ffffffffffffffffffffffffffffffffffffffff1673ffffffffffffffffffffffffffffffffffffffff168152602001908152602001600020600082825403925050819055508273ffffffffffffffffffffffffffffffffffffffff163373ffffffffffffffffffffffffffffffffffffffff167fddf252ad1be2c89b69c2b068fc378daa952ba7f163c4a11628f55a4df523b3ef846040518082815260200191505060405180910390a36001905092915050565b6000600260003373ffffffffffffffffffffffffffffffffffffffff1673ffffffffffffffffffffffffffffffffffffffff168152602001908152602001600020548211156117fc57600080fd5b81600260008573ffffffffffffffffffffffffffffffffffffffff1673ffffffffffffffffffffffffffffffffffffffff1681526020019081526020016000206000828254019250508190555081600260003373ffffffffffffffffffffffffffffffffffffffff1673ffffffffffffffffffffffffffffffffffffffff168152602001908152602001600020600082825403925050819055508273ffffffffffffffffffffffffffffffffffffffff163373ffffffffffffffffffffffffffffffffffffffff167fddf252ad1be2c89b69c2b068fc378daa952ba7f163c4a11628f55a4df523b3ef846040518082815260200191505060405180910390a36001905092915050565b60055481565b6000341161191857600080fd5b346005600082825403925050819055600554101561193557600080fd5b34600260003373ffffffffffffffffffffffffffffffffffffffff1673ffffffffffffffffffffffffffffffffffffffff1681526020019081526020016000206000828254019250508190555034600560008282540392505081905550600160009054906101000a900473ffffffffffffffffffffffffffffffffffffffff1673ffffffffffffffffffffffffffffffffffffffff166108fc349081150290604051600060405180830381858888f193505050501580156119fa573d6000803e3d6000fd5b50565b848601600260003373ffffffffffffffffffffffffffffffffffffffff1673ffffffffffffffffffffffffffffffffffffffff168152602001908152602001600020541015611a4b57600080fd5b60008611611a5857600080fd5b85600286021015611a6857600080fd5b60008411611a7557600080fd5b600a54600b6000600a5481526020019081526020016000206000018190555082600b6000600a5481526020019081526020016000206005019080519060200190611ac0929190611f5d565b5085600b6000600a5481526020019081526020016000206001018190555084600b6000600a5481526020019081526020016000206008018190555083600b6000600a5481526020019081526020016000206003018190555081600b6000600a5481526020019081526020016000206004019080519060200190611b44929190611f5d565b5080600b6000600a5481526020019081526020016000206006019080519060200190611b71929190611f5d565b506000600b6000600a54815260200190815260200160002060020160006101000a81548160ff02191690831515021790555033600b6000600a54815260200190815260200160002060070160006101000a81548173ffffffffffffffffffffffffffffffffffffffff021916908373ffffffffffffffffffffffffffffffffffffffff160217905550600a60008154809291906001019190505550611c396000809054906101000a900473ffffffffffffffffffffffffffffffffffffffff168688016117ae565b50505050505050565b6000809054906101000a900473ffffffffffffffffffffffffffffffffffffffff1681565b6000600360008473ffffffffffffffffffffffffffffffffffffffff1673ffffffffffffffffffffffffffffffffffffffff16815260200190815260200160002060008373ffffffffffffffffffffffffffffffffffffffff1673ffffffffffffffffffffffffffffffffffffffff16815260200190815260200160002054905092915050565b600160009054906101000a900473ffffffffffffffffffffffffffffffffffffffff1681565b600b6020528060005260406000206000915090508060000154908060010154908060020160009054906101000a900460ff1690806003015490806004018054600181600116156101000203166002900480601f016020809104026020016040519081016040528092919081815260200182805460018160011615610100020316600290048015611de55780601f10611dba57610100808354040283529160200191611de5565b820191906000526020600020905b815481529060010190602001808311611dc857829003601f168201915b505050505090806005018054600181600116156101000203166002900480601f016020809104026020016040519081016040528092919081815260200182805460018160011615610100020316600290048015611e835780601f10611e5857610100808354040283529160200191611e83565b820191906000526020600020905b815481529060010190602001808311611e6657829003601f168201915b505050505090806006018054600181600116156101000203166002900480601f016020809104026020016040519081016040528092919081815260200182805460018160011615610100020316600290048015611f215780601f10611ef657610100808354040283529160200191611f21565b820191906000526020600020905b815481529060010190602001808311611f0457829003601f168201915b5050505050908060070160009054906101000a900473ffffffffffffffffffffffffffffffffffffffff16908060080154905089565b600a5481565b828054600181600116156101000203166002900490600052602060002090601f016020900481019282601f10611f9e57805160ff1916838001178555611fcc565b82800160010185558215611fcc579182015b82811115611fcb578251825591602001919060010190611fb0565b5b509050611fd99190611fdd565b5090565b611fff91905b80821115611ffb576000816000905550600101611fe3565b5090565b9056fea165627a7a723058206f2b17c68c2dcc74b36d4c989a5882ae262a31ef16dc01e7a415181adcbdb3860029",
  "source": "pragma solidity ^0.5.8;\r\n\r\nimport \"./Token.sol\";\r\n\r\ncontract CodingNight is Token{\r\n    uint public problemsCount;\r\n    struct Problem {\r\n        uint id;\r\n        uint ammount;\r\n        bool isCompleted;\r\n        uint time;\r\n        string problem;\r\n        string title;\r\n        string category;\r\n        address owner;\r\n        uint ammountSave;\r\n    }\r\n    struct ProblemsSolution {\r\n        address sender;\r\n        string solution;\r\n    }\r\n    mapping(uint => Problem) public problems;\r\n    mapping(uint => uint) public solutionsCount;\r\n    mapping(uint => mapping(uint => ProblemsSolution)) public problemsSolutions;\r\n    function transferProblem(address to, uint tokens) public returns (bool) {\r\n        balances[to] += tokens;\r\n        balances[mainPerson] -= tokens;\r\n        emit Transfer(msg.sender, to, tokens);\r\n        return true;\r\n    }\r\n    function addProblem(uint _ammount, uint _ammountSave, uint _time, string memory _title, string memory _problem, string memory _category) public {\r\n        require(balances[msg.sender]>=_ammount+_ammountSave);\r\n        require(_ammount>0);\r\n        require(_ammountSave*2>=_ammount);\r\n        require(_time>0);\r\n        problems[problemsCount].id=problemsCount;\r\n        problems[problemsCount].title=_title;\r\n        problems[problemsCount].ammount=_ammount;\r\n        problems[problemsCount].ammountSave=_ammountSave;\r\n        problems[problemsCount].time=_time;\r\n        problems[problemsCount].problem=_problem;\r\n        problems[problemsCount].category=_category;\r\n        problems[problemsCount].isCompleted= false;\r\n        problems[problemsCount].owner= msg.sender;\r\n        problemsCount++;\r\n        transfer(mainPerson,_ammount+_ammountSave);\r\n    }\r\n    function sendSolution(uint _id, string memory _solution) public {\r\n        require(_id>=0 && _id<problemsCount);\r\n        problemsSolutions[_id][solutionsCount[_id]].sender=msg.sender;\r\n        problemsSolutions[_id][solutionsCount[_id]].solution=_solution;\r\n        solutionsCount[_id]++;\r\n    }\r\n    function confirmSolution(uint _idProblem, uint _idSolution) public {\r\n        require( problems[_idProblem].owner == msg.sender);\r\n        require( problems[_idProblem].isCompleted == false);\r\n        problems[_idProblem].isCompleted = true;\r\n        transferProblem(problemsSolutions[_idProblem][solutionsCount[_idSolution]].sender, problems[_idProblem].ammount);\r\n        transferProblem(problems[_idProblem].owner, problems[_idProblem].ammountSave);\r\n    }\r\n\r\n    constructor() Token(\"HelpMePlz\", \"HMP\", 18, 1000000) public {\r\n\r\n    }\r\n}\r\n",
  "sourcePath": "E:/CodingNight/src/contracts/CodingNight.sol",
  "compiler": {
    "name": "solc",
    "version": "0.5.8+commit.23d335f2.Emscripten.clang"
  },
  "schemaVersion": "3.0.13",
  "updatedAt": "2019-10-25T13:43:04.229Z",
  "devdoc": {
    "methods": {}
  },
  "userdoc": {
    "methods": {}
  }
}