{
  "contractName": "CodingNight",
  "abi": [
    {
      "constant": true,
      "inputs": [],
      "name": "name",
      "outputs": [
        {
          "name": "",
          "type": "string"
        }
      ],
      "payable": false,
      "stateMutability": "view",
      "type": "function"
    },
    {
      "constant": false,
      "inputs": [
        {
          "name": "spender",
          "type": "address"
        },
        {
          "name": "tokens",
          "type": "uint256"
        }
      ],
      "name": "approve",
      "outputs": [
        {
          "name": "",
          "type": "bool"
        }
      ],
      "payable": false,
      "stateMutability": "nonpayable",
      "type": "function"
    },
    {
      "constant": true,
      "inputs": [],
      "name": "totalSupply",
      "outputs": [
        {
          "name": "",
          "type": "uint256"
        }
      ],
      "payable": false,
      "stateMutability": "view",
      "type": "function"
    },
    {
      "constant": false,
      "inputs": [
        {
          "name": "from",
          "type": "address"
        },
        {
          "name": "to",
          "type": "address"
        },
        {
          "name": "tokens",
          "type": "uint256"
        }
      ],
      "name": "transferFrom",
      "outputs": [
        {
          "name": "",
          "type": "bool"
        }
      ],
      "payable": false,
      "stateMutability": "nonpayable",
      "type": "function"
    },
    {
      "constant": true,
      "inputs": [],
      "name": "decimals",
      "outputs": [
        {
          "name": "",
          "type": "uint8"
        }
      ],
      "payable": false,
      "stateMutability": "view",
      "type": "function"
    },
    {
      "constant": true,
      "inputs": [],
      "name": "_totalSupply",
      "outputs": [
        {
          "name": "",
          "type": "uint256"
        }
      ],
      "payable": false,
      "stateMutability": "view",
      "type": "function"
    },
    {
      "constant": true,
      "inputs": [
        {
          "name": "",
          "type": "address"
        },
        {
          "name": "",
          "type": "address"
        }
      ],
      "name": "allowed",
      "outputs": [
        {
          "name": "",
          "type": "uint256"
        }
      ],
      "payable": false,
      "stateMutability": "view",
      "type": "function"
    },
    {
      "constant": true,
      "inputs": [],
      "name": "solutionsCount",
      "outputs": [
        {
          "name": "",
          "type": "uint256"
        }
      ],
      "payable": false,
      "stateMutability": "view",
      "type": "function"
    },
    {
      "constant": true,
      "inputs": [
        {
          "name": "tokenOwner",
          "type": "address"
        }
      ],
      "name": "balanceOf",
      "outputs": [
        {
          "name": "",
          "type": "uint256"
        }
      ],
      "payable": false,
      "stateMutability": "view",
      "type": "function"
    },
    {
      "constant": true,
      "inputs": [],
      "name": "symbol",
      "outputs": [
        {
          "name": "",
          "type": "string"
        }
      ],
      "payable": false,
      "stateMutability": "view",
      "type": "function"
    },
    {
      "constant": false,
      "inputs": [
        {
          "name": "to",
          "type": "address"
        },
        {
          "name": "tokens",
          "type": "uint256"
        }
      ],
      "name": "transfer",
      "outputs": [
        {
          "name": "",
          "type": "bool"
        }
      ],
      "payable": false,
      "stateMutability": "nonpayable",
      "type": "function"
    },
    {
      "constant": true,
      "inputs": [],
      "name": "tokensLeft",
      "outputs": [
        {
          "name": "",
          "type": "uint256"
        }
      ],
      "payable": false,
      "stateMutability": "view",
      "type": "function"
    },
    {
      "constant": true,
      "inputs": [
        {
          "name": "",
          "type": "uint256"
        }
      ],
      "name": "solutions",
      "outputs": [
        {
          "name": "id",
          "type": "uint256"
        },
        {
          "name": "sender",
          "type": "address"
        },
        {
          "name": "solution",
          "type": "string"
        }
      ],
      "payable": false,
      "stateMutability": "view",
      "type": "function"
    },
    {
      "constant": false,
      "inputs": [],
      "name": "buyTokens",
      "outputs": [],
      "payable": true,
      "stateMutability": "payable",
      "type": "function"
    },
    {
      "constant": true,
      "inputs": [],
      "name": "mainPerson",
      "outputs": [
        {
          "name": "",
          "type": "address"
        }
      ],
      "payable": false,
      "stateMutability": "view",
      "type": "function"
    },
    {
      "constant": true,
      "inputs": [
        {
          "name": "tokenOwner",
          "type": "address"
        },
        {
          "name": "spender",
          "type": "address"
        }
      ],
      "name": "allowance",
      "outputs": [
        {
          "name": "",
          "type": "uint256"
        }
      ],
      "payable": false,
      "stateMutability": "view",
      "type": "function"
    },
    {
      "constant": true,
      "inputs": [],
      "name": "main",
      "outputs": [
        {
          "name": "",
          "type": "address"
        }
      ],
      "payable": false,
      "stateMutability": "view",
      "type": "function"
    },
    {
      "constant": true,
      "inputs": [
        {
          "name": "",
          "type": "uint256"
        }
      ],
      "name": "problems",
      "outputs": [
        {
          "name": "id",
          "type": "uint256"
        },
        {
          "name": "ammount",
          "type": "uint256"
        },
        {
          "name": "isCompleted",
          "type": "bool"
        },
        {
          "name": "time",
          "type": "uint256"
        },
        {
          "name": "problem",
          "type": "string"
        },
        {
          "name": "title",
          "type": "string"
        },
        {
          "name": "category",
          "type": "string"
        },
        {
          "name": "owner",
          "type": "address"
        },
        {
          "name": "ammountSave",
          "type": "uint256"
        }
      ],
      "payable": false,
      "stateMutability": "view",
      "type": "function"
    },
    {
      "constant": true,
      "inputs": [],
      "name": "problemsCount",
      "outputs": [
        {
          "name": "",
          "type": "uint256"
        }
      ],
      "payable": false,
      "stateMutability": "view",
      "type": "function"
    },
    {
      "inputs": [],
      "payable": false,
      "stateMutability": "nonpayable",
      "type": "constructor"
    },
    {
      "anonymous": false,
      "inputs": [
        {
          "indexed": true,
          "name": "_from",
          "type": "address"
        },
        {
          "indexed": true,
          "name": "_to",
          "type": "address"
        },
        {
          "indexed": false,
          "name": "_value",
          "type": "uint256"
        }
      ],
      "name": "Transfer",
      "type": "event"
    },
    {
      "anonymous": false,
      "inputs": [
        {
          "indexed": true,
          "name": "_owner",
          "type": "address"
        },
        {
          "indexed": true,
          "name": "_spender",
          "type": "address"
        },
        {
          "indexed": false,
          "name": "_value",
          "type": "uint256"
        }
      ],
      "name": "Approval",
      "type": "event"
    },
    {
      "constant": false,
      "inputs": [
        {
          "name": "to",
          "type": "address"
        },
        {
          "name": "tokens",
          "type": "uint256"
        }
      ],
      "name": "transferProblem",
      "outputs": [
        {
          "name": "",
          "type": "bool"
        }
      ],
      "payable": false,
      "stateMutability": "nonpayable",
      "type": "function"
    },
    {
      "constant": false,
      "inputs": [
        {
          "name": "_ammount",
          "type": "uint256"
        },
        {
          "name": "_ammountSave",
          "type": "uint256"
        },
        {
          "name": "_time",
          "type": "uint256"
        },
        {
          "name": "_title",
          "type": "string"
        },
        {
          "name": "_problem",
          "type": "string"
        },
        {
          "name": "_category",
          "type": "string"
        }
      ],
      "name": "addProblem",
      "outputs": [],
      "payable": false,
      "stateMutability": "nonpayable",
      "type": "function"
    },
    {
      "constant": false,
      "inputs": [
        {
          "name": "_id",
          "type": "uint256"
        },
        {
          "name": "_solution",
          "type": "string"
        }
      ],
      "name": "sendSolution",
      "outputs": [],
      "payable": false,
      "stateMutability": "nonpayable",
      "type": "function"
    },
    {
      "constant": false,
      "inputs": [
        {
          "name": "_idProblem",
          "type": "uint256"
        },
        {
          "name": "_idSolution",
          "type": "uint256"
        }
      ],
      "name": "confirmSolution",
      "outputs": [],
      "payable": false,
      "stateMutability": "nonpayable",
      "type": "function"
    },
    {
      "constant": false,
      "inputs": [
        {
          "name": "_address",
          "type": "address"
        }
      ],
      "name": "addValidator",
      "outputs": [],
      "payable": false,
      "stateMutability": "nonpayable",
      "type": "function"
    },
    {
      "constant": false,
      "inputs": [
        {
          "name": "_account",
          "type": "address"
        }
      ],
      "name": "blockAccount",
      "outputs": [],
      "payable": false,
      "stateMutability": "nonpayable",
      "type": "function"
    },
    {
      "constant": false,
      "inputs": [
        {
          "name": "_account",
          "type": "address"
        },
        {
          "name": "_tokens",
          "type": "uint256"
        }
      ],
      "name": "giveBack",
      "outputs": [],
      "payable": false,
      "stateMutability": "nonpayable",
      "type": "function"
    }
  ],
  "bytecode": "0x608060405260008060006101000a81548173ffffffffffffffffffffffffffffffffffffffff021916908373ffffffffffffffffffffffffffffffffffffffff1602179055503480156200005257600080fd5b506040518060400160405280600981526020017f48656c704d65506c7a00000000000000000000000000000000000000000000008152506040518060400160405280600381526020017f484d5000000000000000000000000000000000000000000000000000000000008152506012620f42408360069080519060200190620000dd929190620001bf565b508260079080519060200190620000f6929190620001bf565b5081600860006101000a81548160ff021916908360ff1602179055508160ff16600a0a6009819055506009548102600481905550600260003373ffffffffffffffffffffffffffffffffffffffff1673ffffffffffffffffffffffffffffffffffffffff168152602001908152602001600020546004540360058190555033600160006101000a81548173ffffffffffffffffffffffffffffffffffffffff021916908373ffffffffffffffffffffffffffffffffffffffff160217905550505050506200026e565b828054600181600116156101000203166002900490600052602060002090601f016020900481019282601f106200020257805160ff191683800117855562000233565b8280016001018555821562000233579182015b828111156200023257825182559160200191906001019062000215565b5b50905062000242919062000246565b5090565b6200026b91905b80821115620002675760008160009055506001016200024d565b5090565b90565b61236e806200027e6000396000f3fe6080604052600436106101815760003560e01c806395d89b41116100d1578063d0febe4c1161008a578063dd62ed3e11610064578063dd62ed3e14610bd0578063dffeadd014610c55578063eba4f36614610cac578063fd33d0a114610e9257610181565b8063d0febe4c1461095b578063d167b43314610965578063d16f822a14610b7957610181565b806395d89b4114610671578063a530708a14610701578063a9059cbb14610774578063a9b666f7146107e7578063b31f8f9314610842578063b71698c71461086d57610181565b80633eaaf86b1161013e5780635c658165116101185780635c6581651461050b5780636e67cd9c1461059057806370a08231146105bb5780637c0a893d1461062057610181565b80633eaaf86b1461044a5780634d238c8e146104755780634e2bb025146104c657610181565b806306fdde0314610186578063095ea7b31461021657806318160ddd1461028957806323b872dd146102b45780633058a3e414610347578063313ce56714610419575b600080fd5b34801561019257600080fd5b5061019b610ebd565b6040518080602001828103825283818151815260200191508051906020019080838360005b838110156101db5780820151818401526020810190506101c0565b50505050905090810190601f1680156102085780820380516001836020036101000a031916815260200191505b509250505060405180910390f35b34801561022257600080fd5b5061026f6004803603604081101561023957600080fd5b81019080803573ffffffffffffffffffffffffffffffffffffffff16906020019092919080359060200190929190505050610f5b565b604051808215151515815260200191505060405180910390f35b34801561029557600080fd5b5061029e61104d565b6040518082815260200191505060405180910390f35b3480156102c057600080fd5b5061032d600480360360608110156102d757600080fd5b81019080803573ffffffffffffffffffffffffffffffffffffffff169060200190929190803573ffffffffffffffffffffffffffffffffffffffff16906020019092919080359060200190929190505050611057565b604051808215151515815260200191505060405180910390f35b34801561035357600080fd5b506104176004803603604081101561036a57600080fd5b81019080803590602001909291908035906020019064010000000081111561039157600080fd5b8201836020820111156103a357600080fd5b803590602001918460018302840111640100000000831117156103c557600080fd5b91908080601f016020809104026020016040519081016040528093929190818152602001838380828437600081840152601f19601f8201169050808301925050505050505091929192905050506112c2565b005b34801561042557600080fd5b5061042e611394565b604051808260ff1660ff16815260200191505060405180910390f35b34801561045657600080fd5b5061045f6113a7565b6040518082815260200191505060405180910390f35b34801561048157600080fd5b506104c46004803603602081101561049857600080fd5b81019080803573ffffffffffffffffffffffffffffffffffffffff1690602001909291905050506113ad565b005b3480156104d257600080fd5b50610509600480360360408110156104e957600080fd5b810190808035906020019092919080359060200190929190505050611462565b005b34801561051757600080fd5b5061057a6004803603604081101561052e57600080fd5b81019080803573ffffffffffffffffffffffffffffffffffffffff169060200190929190803573ffffffffffffffffffffffffffffffffffffffff169060200190929190505050611607565b6040518082815260200191505060405180910390f35b34801561059c57600080fd5b506105a561162c565b6040518082815260200191505060405180910390f35b3480156105c757600080fd5b5061060a600480360360208110156105de57600080fd5b81019080803573ffffffffffffffffffffffffffffffffffffffff169060200190929190505050611632565b6040518082815260200191505060405180910390f35b34801561062c57600080fd5b5061066f6004803603602081101561064357600080fd5b81019080803573ffffffffffffffffffffffffffffffffffffffff16906020019092919050505061167b565b005b34801561067d57600080fd5b50610686611720565b6040518080602001828103825283818151815260200191508051906020019080838360005b838110156106c65780820151818401526020810190506106ab565b50505050905090810190601f1680156106f35780820380516001836020036101000a031916815260200191505b509250505060405180910390f35b34801561070d57600080fd5b5061075a6004803603604081101561072457600080fd5b81019080803573ffffffffffffffffffffffffffffffffffffffff169060200190929190803590602001909291905050506117be565b604051808215151515815260200191505060405180910390f35b34801561078057600080fd5b506107cd6004803603604081101561079757600080fd5b81019080803573ffffffffffffffffffffffffffffffffffffffff169060200190929190803590602001909291905050506118ea565b604051808215151515815260200191505060405180910390f35b3480156107f357600080fd5b506108406004803603604081101561080a57600080fd5b81019080803573ffffffffffffffffffffffffffffffffffffffff16906020019092919080359060200190929190505050611a41565b005b34801561084e57600080fd5b50610857611aec565b6040518082815260200191505060405180910390f35b34801561087957600080fd5b506108a66004803603602081101561089057600080fd5b8101908080359060200190929190505050611af2565b604051808481526020018373ffffffffffffffffffffffffffffffffffffffff1673ffffffffffffffffffffffffffffffffffffffff16815260200180602001828103825283818151815260200191508051906020019080838360005b8381101561091e578082015181840152602081019050610903565b50505050905090810190601f16801561094b5780820380516001836020036101000a031916815260200191505b5094505050505060405180910390f35b610963611bd4565b005b34801561097157600080fd5b50610b77600480360360c081101561098857600080fd5b81019080803590602001909291908035906020019092919080359060200190929190803590602001906401000000008111156109c357600080fd5b8201836020820111156109d557600080fd5b803590602001918460018302840111640100000000831117156109f757600080fd5b91908080601f016020809104026020016040519081016040528093929190818152602001838380828437600081840152601f19601f82011690508083019250505050505050919291929080359060200190640100000000811115610a5a57600080fd5b820183602082011115610a6c57600080fd5b80359060200191846001830284011164010000000083111715610a8e57600080fd5b91908080601f016020809104026020016040519081016040528093929190818152602001838380828437600081840152601f19601f82011690508083019250505050505050919291929080359060200190640100000000811115610af157600080fd5b820183602082011115610b0357600080fd5b80359060200191846001830284011164010000000083111715610b2557600080fd5b91908080601f016020809104026020016040519081016040528093929190818152602001838380828437600081840152601f19601f820116905080830192505050505050509192919290505050611d3b565b005b348015610b8557600080fd5b50610b8e611f82565b604051808273ffffffffffffffffffffffffffffffffffffffff1673ffffffffffffffffffffffffffffffffffffffff16815260200191505060405180910390f35b348015610bdc57600080fd5b50610c3f60048036036040811015610bf357600080fd5b81019080803573ffffffffffffffffffffffffffffffffffffffff169060200190929190803573ffffffffffffffffffffffffffffffffffffffff169060200190929190505050611fa7565b6040518082815260200191505060405180910390f35b348015610c6157600080fd5b50610c6a61202e565b604051808273ffffffffffffffffffffffffffffffffffffffff1673ffffffffffffffffffffffffffffffffffffffff16815260200191505060405180910390f35b348015610cb857600080fd5b50610ce560048036036020811015610ccf57600080fd5b8101908080359060200190929190505050612054565b604051808a8152602001898152602001881515151581526020018781526020018060200180602001806020018673ffffffffffffffffffffffffffffffffffffffff1673ffffffffffffffffffffffffffffffffffffffff168152602001858152602001848103845289818151815260200191508051906020019080838360005b83811015610d81578082015181840152602081019050610d66565b50505050905090810190601f168015610dae5780820380516001836020036101000a031916815260200191505b50848103835288818151815260200191508051906020019080838360005b83811015610de7578082015181840152602081019050610dcc565b50505050905090810190601f168015610e145780820380516001836020036101000a031916815260200191505b50848103825287818151815260200191508051906020019080838360005b83811015610e4d578082015181840152602081019050610e32565b50505050905090810190601f168015610e7a5780820380516001836020036101000a031916815260200191505b509c5050505050505050505050505060405180910390f35b348015610e9e57600080fd5b50610ea7612297565b6040518082815260200191505060405180910390f35b60068054600181600116156101000203166002900480601f016020809104026020016040519081016040528092919081815260200182805460018160011615610100020316600290048015610f535780601f10610f2857610100808354040283529160200191610f53565b820191906000526020600020905b815481529060010190602001808311610f3657829003601f168201915b505050505081565b600081600360003373ffffffffffffffffffffffffffffffffffffffff1673ffffffffffffffffffffffffffffffffffffffff16815260200190815260200160002060008573ffffffffffffffffffffffffffffffffffffffff1673ffffffffffffffffffffffffffffffffffffffff168152602001908152602001600020819055508273ffffffffffffffffffffffffffffffffffffffff163373ffffffffffffffffffffffffffffffffffffffff167f8c5be1e5ebec7d5bd14f71427d1e84f3dd0314c0f7b2291e5b200ac8c7c3b925846040518082815260200191505060405180910390a36001905092915050565b6000600454905090565b600081600260008673ffffffffffffffffffffffffffffffffffffffff1673ffffffffffffffffffffffffffffffffffffffff1681526020019081526020016000205410156110a557600080fd5b81600360008673ffffffffffffffffffffffffffffffffffffffff1673ffffffffffffffffffffffffffffffffffffffff16815260200190815260200160002060003373ffffffffffffffffffffffffffffffffffffffff1673ffffffffffffffffffffffffffffffffffffffff16815260200190815260200160002054101561112e57600080fd5b81600260008673ffffffffffffffffffffffffffffffffffffffff1673ffffffffffffffffffffffffffffffffffffffff1681526020019081526020016000206000828254039250508190555081600360008673ffffffffffffffffffffffffffffffffffffffff1673ffffffffffffffffffffffffffffffffffffffff16815260200190815260200160002060003373ffffffffffffffffffffffffffffffffffffffff1673ffffffffffffffffffffffffffffffffffffffff1681526020019081526020016000206000828254039250508190555081600260008573ffffffffffffffffffffffffffffffffffffffff1673ffffffffffffffffffffffffffffffffffffffff168152602001908152602001600020600082825401925050819055508273ffffffffffffffffffffffffffffffffffffffff168473ffffffffffffffffffffffffffffffffffffffff167fddf252ad1be2c89b69c2b068fc378daa952ba7f163c4a11628f55a4df523b3ef846040518082815260200191505060405180910390a3600190509392505050565b600082101580156112d45750600b5482105b6112dd57600080fd5b81600e6000600d5481526020019081526020016000206000018190555033600e6000600d54815260200190815260200160002060010160006101000a81548173ffffffffffffffffffffffffffffffffffffffff021916908373ffffffffffffffffffffffffffffffffffffffff16021790555080600e6000600d548152602001908152602001600020600201908051906020019061137d92919061229d565b50600d600081548092919060010191905055505050565b600860009054906101000a900460ff1681565b60045481565b3373ffffffffffffffffffffffffffffffffffffffff16600160009054906101000a900473ffffffffffffffffffffffffffffffffffffffff1673ffffffffffffffffffffffffffffffffffffffff161461140757600080fd5b6001600a60008373ffffffffffffffffffffffffffffffffffffffff1673ffffffffffffffffffffffffffffffffffffffff16815260200190815260200160002060006101000a81548160ff02191690831515021790555050565b600c600083815260200190815260200160002060030154421061148457600080fd5b3373ffffffffffffffffffffffffffffffffffffffff16600c600084815260200190815260200160002060070160009054906101000a900473ffffffffffffffffffffffffffffffffffffffff1673ffffffffffffffffffffffffffffffffffffffff16146114f257600080fd5b60001515600c600084815260200190815260200160002060020160009054906101000a900460ff1615151461152657600080fd5b6001600c600084815260200190815260200160002060020160006101000a81548160ff0219169083151502179055506115ab600e600083815260200190815260200160002060010160009054906101000a900473ffffffffffffffffffffffffffffffffffffffff16600c6000858152602001908152602001600020600101546117be565b50611602600c600084815260200190815260200160002060070160009054906101000a900473ffffffffffffffffffffffffffffffffffffffff16600c6000858152602001908152602001600020600801546117be565b505050565b6003602052816000526040600020602052806000526040600020600091509150505481565b600d5481565b6000600260008373ffffffffffffffffffffffffffffffffffffffff1673ffffffffffffffffffffffffffffffffffffffff168152602001908152602001600020549050919050565b60011515600a60003373ffffffffffffffffffffffffffffffffffffffff1673ffffffffffffffffffffffffffffffffffffffff16815260200190815260200160002060009054906101000a900460ff161515146116d857600080fd5b6000600260008373ffffffffffffffffffffffffffffffffffffffff1673ffffffffffffffffffffffffffffffffffffffff1681526020019081526020016000208190555050565b60078054600181600116156101000203166002900480601f0160208091040260200160405190810160405280929190818152602001828054600181600116156101000203166002900480156117b65780601f1061178b576101008083540402835291602001916117b6565b820191906000526020600020905b81548152906001019060200180831161179957829003601f168201915b505050505081565b600081600260008573ffffffffffffffffffffffffffffffffffffffff1673ffffffffffffffffffffffffffffffffffffffff1681526020019081526020016000206000828254019250508190555081600260008060009054906101000a900473ffffffffffffffffffffffffffffffffffffffff1673ffffffffffffffffffffffffffffffffffffffff1673ffffffffffffffffffffffffffffffffffffffff168152602001908152602001600020600082825403925050819055508273ffffffffffffffffffffffffffffffffffffffff163373ffffffffffffffffffffffffffffffffffffffff167fddf252ad1be2c89b69c2b068fc378daa952ba7f163c4a11628f55a4df523b3ef846040518082815260200191505060405180910390a36001905092915050565b6000600260003373ffffffffffffffffffffffffffffffffffffffff1673ffffffffffffffffffffffffffffffffffffffff1681526020019081526020016000205482111561193857600080fd5b81600260008573ffffffffffffffffffffffffffffffffffffffff1673ffffffffffffffffffffffffffffffffffffffff1681526020019081526020016000206000828254019250508190555081600260003373ffffffffffffffffffffffffffffffffffffffff1673ffffffffffffffffffffffffffffffffffffffff168152602001908152602001600020600082825403925050819055508273ffffffffffffffffffffffffffffffffffffffff163373ffffffffffffffffffffffffffffffffffffffff167fddf252ad1be2c89b69c2b068fc378daa952ba7f163c4a11628f55a4df523b3ef846040518082815260200191505060405180910390a36001905092915050565b3373ffffffffffffffffffffffffffffffffffffffff16600160009054906101000a900473ffffffffffffffffffffffffffffffffffffffff1673ffffffffffffffffffffffffffffffffffffffff1614611a9b57600080fd5b80600260008473ffffffffffffffffffffffffffffffffffffffff1673ffffffffffffffffffffffffffffffffffffffff168152602001908152602001600020600082825401925050819055505050565b60055481565b600e6020528060005260406000206000915090508060000154908060010160009054906101000a900473ffffffffffffffffffffffffffffffffffffffff1690806002018054600181600116156101000203166002900480601f016020809104026020016040519081016040528092919081815260200182805460018160011615610100020316600290048015611bca5780601f10611b9f57610100808354040283529160200191611bca565b820191906000526020600020905b815481529060010190602001808311611bad57829003601f168201915b5050505050905083565b60003411611be157600080fd5b3460056000828254039250508190556005541015611bfe57600080fd5b6127103403600260003373ffffffffffffffffffffffffffffffffffffffff1673ffffffffffffffffffffffffffffffffffffffff1681526020019081526020016000206000828254019250508190555061271060026000600160009054906101000a900473ffffffffffffffffffffffffffffffffffffffff1673ffffffffffffffffffffffffffffffffffffffff1673ffffffffffffffffffffffffffffffffffffffff1681526020019081526020016000206000828254019250508190555034600560008282540392505081905550600160009054906101000a900473ffffffffffffffffffffffffffffffffffffffff1673ffffffffffffffffffffffffffffffffffffffff166108fc349081150290604051600060405180830381858888f19350505050158015611d38573d6000803e3d6000fd5b50565b848601600260003373ffffffffffffffffffffffffffffffffffffffff1673ffffffffffffffffffffffffffffffffffffffff168152602001908152602001600020541015611d8957600080fd5b60008611611d9657600080fd5b85600286021015611da657600080fd5b60008411611db357600080fd5b600b54600c6000600b5481526020019081526020016000206000018190555082600c6000600b5481526020019081526020016000206005019080519060200190611dfe92919061229d565b5085600c6000600b5481526020019081526020016000206001018190555084600c6000600b54815260200190815260200160002060080181905550428401600c6000600b5481526020019081526020016000206003018190555081600c6000600b5481526020019081526020016000206004019080519060200190611e8492919061229d565b5080600c6000600b5481526020019081526020016000206006019080519060200190611eb192919061229d565b506000600c6000600b54815260200190815260200160002060020160006101000a81548160ff02191690831515021790555033600c6000600b54815260200190815260200160002060070160006101000a81548173ffffffffffffffffffffffffffffffffffffffff021916908373ffffffffffffffffffffffffffffffffffffffff160217905550600b60008154809291906001019190505550611f796000809054906101000a900473ffffffffffffffffffffffffffffffffffffffff168688016118ea565b50505050505050565b6000809054906101000a900473ffffffffffffffffffffffffffffffffffffffff1681565b6000600360008473ffffffffffffffffffffffffffffffffffffffff1673ffffffffffffffffffffffffffffffffffffffff16815260200190815260200160002060008373ffffffffffffffffffffffffffffffffffffffff1673ffffffffffffffffffffffffffffffffffffffff16815260200190815260200160002054905092915050565b600160009054906101000a900473ffffffffffffffffffffffffffffffffffffffff1681565b600c6020528060005260406000206000915090508060000154908060010154908060020160009054906101000a900460ff1690806003015490806004018054600181600116156101000203166002900480601f0160208091040260200160405190810160405280929190818152602001828054600181600116156101000203166002900480156121255780601f106120fa57610100808354040283529160200191612125565b820191906000526020600020905b81548152906001019060200180831161210857829003601f168201915b505050505090806005018054600181600116156101000203166002900480601f0160208091040260200160405190810160405280929190818152602001828054600181600116156101000203166002900480156121c35780601f10612198576101008083540402835291602001916121c3565b820191906000526020600020905b8154815290600101906020018083116121a657829003601f168201915b505050505090806006018054600181600116156101000203166002900480601f0160208091040260200160405190810160405280929190818152602001828054600181600116156101000203166002900480156122615780601f1061223657610100808354040283529160200191612261565b820191906000526020600020905b81548152906001019060200180831161224457829003601f168201915b5050505050908060070160009054906101000a900473ffffffffffffffffffffffffffffffffffffffff16908060080154905089565b600b5481565b828054600181600116156101000203166002900490600052602060002090601f016020900481019282601f106122de57805160ff191683800117855561230c565b8280016001018555821561230c579182015b8281111561230b5782518255916020019190600101906122f0565b5b509050612319919061231d565b5090565b61233f91905b8082111561233b576000816000905550600101612323565b5090565b9056fea165627a7a72305820c7f8dfca052910ffdbe747e4f451c2adc751ba52d3aa3cdd1806bf1c85cc80a20029",
  "source": "pragma solidity ^0.5.8;\r\n\r\nimport \"./Token.sol\";\r\n\r\ncontract CodingNight is Token{\r\n    mapping(address => bool) validators;\r\n    uint public problemsCount;\r\n    struct Problem {\r\n        uint id;\r\n        uint ammount;\r\n        bool isCompleted;\r\n        uint time;\r\n        string problem;\r\n        string title;\r\n        string category;\r\n        address owner;\r\n        uint ammountSave;\r\n    }\r\n    struct ProblemsSolution {\r\n        uint id;\r\n        address sender;\r\n        string solution;\r\n    }\r\n    mapping(uint => Problem) public problems;\r\n    uint public solutionsCount;\r\n    mapping(uint => ProblemsSolution) public solutions;\r\n    function transferProblem(address to, uint tokens) public returns (bool) {\r\n        balances[to] += tokens;\r\n        balances[mainPerson] -= tokens;\r\n        emit Transfer(msg.sender, to, tokens);\r\n        return true;\r\n    }\r\n    function addProblem(uint _ammount, uint _ammountSave, uint _time, string memory _title, string memory _problem, string memory _category) public {\r\n        require(balances[msg.sender]>=_ammount+_ammountSave);\r\n        require(_ammount>0);\r\n        require(_ammountSave*2>=_ammount);\r\n        require(_time>0);\r\n        problems[problemsCount].id=problemsCount;\r\n        problems[problemsCount].title=_title;\r\n        problems[problemsCount].ammount=_ammount;\r\n        problems[problemsCount].ammountSave=_ammountSave;\r\n        problems[problemsCount].time=_time+block.timestamp;\r\n        problems[problemsCount].problem=_problem;\r\n        problems[problemsCount].category=_category;\r\n        problems[problemsCount].isCompleted= false;\r\n        problems[problemsCount].owner= msg.sender;\r\n        problemsCount++;\r\n        transfer(mainPerson,_ammount+_ammountSave);\r\n    }\r\n    function sendSolution(uint _id, string memory _solution) public {\r\n        require(_id>=0 && _id<problemsCount);\r\n        solutions[solutionsCount].id = _id;\r\n        solutions[solutionsCount].sender = msg.sender;\r\n        solutions[solutionsCount].solution = _solution;\r\n        solutionsCount++;\r\n    }\r\n    function confirmSolution(uint _idProblem, uint _idSolution) public {\r\n        require(block.timestamp< problems[_idProblem].time);\r\n        require( problems[_idProblem].owner == msg.sender);\r\n        require( problems[_idProblem].isCompleted == false);\r\n        problems[_idProblem].isCompleted = true;\r\n        transferProblem(solutions[_idSolution].sender, problems[_idProblem].ammount);\r\n        transferProblem(problems[_idProblem].owner, problems[_idProblem].ammountSave);\r\n    }\r\n    function addValidator(address _address) public {\r\n    require(main == msg.sender);\r\n        validators[_address] = true;\r\n    }\r\n    function blockAccount(address _account) public {\r\n        require(validators[msg.sender]==true);\r\n        balances[_account] = 0;\r\n    }\r\n    function giveBack(address _account, uint _tokens) public {\r\n        require(main == msg.sender);\r\n        balances[_account] += _tokens;\r\n    }\r\n\r\n    constructor() Token(\"HelpMePlz\", \"HMP\", 18, 1000000) public {\r\n\r\n    }\r\n}\r\n",
  "sourcePath": "E:/coding/CodingNight/src/contracts/CodingNight.sol",
  "compiler": {
    "name": "solc",
    "version": "0.5.8+commit.23d335f2.Emscripten.clang"
  },
  "schemaVersion": "3.0.13",
  "updatedAt": "2019-10-25T22:03:40.740Z",
  "devdoc": {
    "methods": {}
  },
  "userdoc": {
    "methods": {}
  }
}