{
  "contractName": "CodingNight",
  "abi": [
    {
      "constant": true,
      "inputs": [],
      "name": "name",
      "outputs": [
        {
          "name": "",
          "type": "string"
        }
      ],
      "payable": false,
      "stateMutability": "view",
      "type": "function"
    },
    {
      "constant": false,
      "inputs": [
        {
          "name": "spender",
          "type": "address"
        },
        {
          "name": "tokens",
          "type": "uint256"
        }
      ],
      "name": "approve",
      "outputs": [
        {
          "name": "",
          "type": "bool"
        }
      ],
      "payable": false,
      "stateMutability": "nonpayable",
      "type": "function"
    },
    {
      "constant": true,
      "inputs": [],
      "name": "totalSupply",
      "outputs": [
        {
          "name": "",
          "type": "uint256"
        }
      ],
      "payable": false,
      "stateMutability": "view",
      "type": "function"
    },
    {
      "constant": false,
      "inputs": [
        {
          "name": "from",
          "type": "address"
        },
        {
          "name": "to",
          "type": "address"
        },
        {
          "name": "tokens",
          "type": "uint256"
        }
      ],
      "name": "transferFrom",
      "outputs": [
        {
          "name": "",
          "type": "bool"
        }
      ],
      "payable": false,
      "stateMutability": "nonpayable",
      "type": "function"
    },
    {
      "constant": true,
      "inputs": [],
      "name": "decimals",
      "outputs": [
        {
          "name": "",
          "type": "uint8"
        }
      ],
      "payable": false,
      "stateMutability": "view",
      "type": "function"
    },
    {
      "constant": true,
      "inputs": [],
      "name": "_totalSupply",
      "outputs": [
        {
          "name": "",
          "type": "uint256"
        }
      ],
      "payable": false,
      "stateMutability": "view",
      "type": "function"
    },
    {
      "constant": true,
      "inputs": [
        {
          "name": "",
          "type": "address"
        },
        {
          "name": "",
          "type": "address"
        }
      ],
      "name": "allowed",
      "outputs": [
        {
          "name": "",
          "type": "uint256"
        }
      ],
      "payable": false,
      "stateMutability": "view",
      "type": "function"
    },
    {
      "constant": true,
      "inputs": [],
      "name": "solutionsCount",
      "outputs": [
        {
          "name": "",
          "type": "uint256"
        }
      ],
      "payable": false,
      "stateMutability": "view",
      "type": "function"
    },
    {
      "constant": true,
      "inputs": [
        {
          "name": "tokenOwner",
          "type": "address"
        }
      ],
      "name": "balanceOf",
      "outputs": [
        {
          "name": "",
          "type": "uint256"
        }
      ],
      "payable": false,
      "stateMutability": "view",
      "type": "function"
    },
    {
      "constant": true,
      "inputs": [],
      "name": "symbol",
      "outputs": [
        {
          "name": "",
          "type": "string"
        }
      ],
      "payable": false,
      "stateMutability": "view",
      "type": "function"
    },
    {
      "constant": false,
      "inputs": [
        {
          "name": "to",
          "type": "address"
        },
        {
          "name": "tokens",
          "type": "uint256"
        }
      ],
      "name": "transfer",
      "outputs": [
        {
          "name": "",
          "type": "bool"
        }
      ],
      "payable": false,
      "stateMutability": "nonpayable",
      "type": "function"
    },
    {
      "constant": true,
      "inputs": [],
      "name": "tokensLeft",
      "outputs": [
        {
          "name": "",
          "type": "uint256"
        }
      ],
      "payable": false,
      "stateMutability": "view",
      "type": "function"
    },
    {
      "constant": true,
      "inputs": [
        {
          "name": "",
          "type": "uint256"
        }
      ],
      "name": "solutions",
      "outputs": [
        {
          "name": "id",
          "type": "uint256"
        },
        {
          "name": "sender",
          "type": "address"
        },
        {
          "name": "solution",
          "type": "string"
        }
      ],
      "payable": false,
      "stateMutability": "view",
      "type": "function"
    },
    {
      "constant": false,
      "inputs": [],
      "name": "buyTokens",
      "outputs": [],
      "payable": true,
      "stateMutability": "payable",
      "type": "function"
    },
    {
      "constant": true,
      "inputs": [],
      "name": "mainPerson",
      "outputs": [
        {
          "name": "",
          "type": "address"
        }
      ],
      "payable": false,
      "stateMutability": "view",
      "type": "function"
    },
    {
      "constant": true,
      "inputs": [
        {
          "name": "tokenOwner",
          "type": "address"
        },
        {
          "name": "spender",
          "type": "address"
        }
      ],
      "name": "allowance",
      "outputs": [
        {
          "name": "",
          "type": "uint256"
        }
      ],
      "payable": false,
      "stateMutability": "view",
      "type": "function"
    },
    {
      "constant": true,
      "inputs": [],
      "name": "main",
      "outputs": [
        {
          "name": "",
          "type": "address"
        }
      ],
      "payable": false,
      "stateMutability": "view",
      "type": "function"
    },
    {
      "constant": true,
      "inputs": [
        {
          "name": "",
          "type": "uint256"
        }
      ],
      "name": "problems",
      "outputs": [
        {
          "name": "id",
          "type": "uint256"
        },
        {
          "name": "ammount",
          "type": "uint256"
        },
        {
          "name": "isCompleted",
          "type": "bool"
        },
        {
          "name": "time",
          "type": "uint256"
        },
        {
          "name": "problem",
          "type": "string"
        },
        {
          "name": "title",
          "type": "string"
        },
        {
          "name": "category",
          "type": "string"
        },
        {
          "name": "owner",
          "type": "address"
        },
        {
          "name": "ammountSave",
          "type": "uint256"
        }
      ],
      "payable": false,
      "stateMutability": "view",
      "type": "function"
    },
    {
      "constant": true,
      "inputs": [],
      "name": "problemsCount",
      "outputs": [
        {
          "name": "",
          "type": "uint256"
        }
      ],
      "payable": false,
      "stateMutability": "view",
      "type": "function"
    },
    {
      "inputs": [],
      "payable": false,
      "stateMutability": "nonpayable",
      "type": "constructor"
    },
    {
      "anonymous": false,
      "inputs": [
        {
          "indexed": true,
          "name": "_from",
          "type": "address"
        },
        {
          "indexed": true,
          "name": "_to",
          "type": "address"
        },
        {
          "indexed": false,
          "name": "_value",
          "type": "uint256"
        }
      ],
      "name": "Transfer",
      "type": "event"
    },
    {
      "anonymous": false,
      "inputs": [
        {
          "indexed": true,
          "name": "_owner",
          "type": "address"
        },
        {
          "indexed": true,
          "name": "_spender",
          "type": "address"
        },
        {
          "indexed": false,
          "name": "_value",
          "type": "uint256"
        }
      ],
      "name": "Approval",
      "type": "event"
    },
    {
      "constant": false,
      "inputs": [
        {
          "name": "to",
          "type": "address"
        },
        {
          "name": "tokens",
          "type": "uint256"
        }
      ],
      "name": "transferProblem",
      "outputs": [
        {
          "name": "",
          "type": "bool"
        }
      ],
      "payable": false,
      "stateMutability": "nonpayable",
      "type": "function"
    },
    {
      "constant": false,
      "inputs": [
        {
          "name": "_ammount",
          "type": "uint256"
        },
        {
          "name": "_ammountSave",
          "type": "uint256"
        },
        {
          "name": "_time",
          "type": "uint256"
        },
        {
          "name": "_title",
          "type": "string"
        },
        {
          "name": "_problem",
          "type": "string"
        },
        {
          "name": "_category",
          "type": "string"
        }
      ],
      "name": "addProblem",
      "outputs": [],
      "payable": false,
      "stateMutability": "nonpayable",
      "type": "function"
    },
    {
      "constant": false,
      "inputs": [
        {
          "name": "_id",
          "type": "uint256"
        },
        {
          "name": "_solution",
          "type": "string"
        }
      ],
      "name": "sendSolution",
      "outputs": [],
      "payable": false,
      "stateMutability": "nonpayable",
      "type": "function"
    },
    {
      "constant": false,
      "inputs": [
        {
          "name": "_idProblem",
          "type": "uint256"
        },
        {
          "name": "_idSolution",
          "type": "uint256"
        }
      ],
      "name": "confirmSolution",
      "outputs": [],
      "payable": false,
      "stateMutability": "nonpayable",
      "type": "function"
    }
  ],
  "bytecode": "0x608060405260008060006101000a81548173ffffffffffffffffffffffffffffffffffffffff021916908373ffffffffffffffffffffffffffffffffffffffff1602179055503480156200005257600080fd5b506040518060400160405280600981526020017f48656c704d65506c7a00000000000000000000000000000000000000000000008152506040518060400160405280600381526020017f484d5000000000000000000000000000000000000000000000000000000000008152506012620f42408360069080519060200190620000dd929190620001bf565b508260079080519060200190620000f6929190620001bf565b5081600860006101000a81548160ff021916908360ff1602179055508160ff16600a0a6009819055506009548102600481905550600260003373ffffffffffffffffffffffffffffffffffffffff1673ffffffffffffffffffffffffffffffffffffffff168152602001908152602001600020546004540360058190555033600160006101000a81548173ffffffffffffffffffffffffffffffffffffffff021916908373ffffffffffffffffffffffffffffffffffffffff160217905550505050506200026e565b828054600181600116156101000203166002900490600052602060002090601f016020900481019282601f106200020257805160ff191683800117855562000233565b8280016001018555821562000233579182015b828111156200023257825182559160200191906001019062000215565b5b50905062000242919062000246565b5090565b6200026b91905b80821115620002675760008160009055506001016200024d565b5090565b90565b611fb6806200027e6000396000f3fe6080604052600436106101405760003560e01c806395d89b41116100b6578063d167b4331161006f578063d167b43314610827578063d16f822a14610a3b578063dd62ed3e14610a92578063dffeadd014610b17578063eba4f36614610b6e578063fd33d0a114610d5457610140565b806395d89b411461058e578063a530708a1461061e578063a9059cbb14610691578063b31f8f9314610704578063b71698c71461072f578063d0febe4c1461081d57610140565b8063313ce56711610108578063313ce567146103d85780633eaaf86b146104095780634e2bb025146104345780635c658165146104795780636e67cd9c146104fe57806370a082311461052957610140565b806306fdde0314610145578063095ea7b3146101d557806318160ddd1461024857806323b872dd146102735780633058a3e414610306575b600080fd5b34801561015157600080fd5b5061015a610d7f565b6040518080602001828103825283818151815260200191508051906020019080838360005b8381101561019a57808201518184015260208101905061017f565b50505050905090810190601f1680156101c75780820380516001836020036101000a031916815260200191505b509250505060405180910390f35b3480156101e157600080fd5b5061022e600480360360408110156101f857600080fd5b81019080803573ffffffffffffffffffffffffffffffffffffffff16906020019092919080359060200190929190505050610e1d565b604051808215151515815260200191505060405180910390f35b34801561025457600080fd5b5061025d610f0f565b6040518082815260200191505060405180910390f35b34801561027f57600080fd5b506102ec6004803603606081101561029657600080fd5b81019080803573ffffffffffffffffffffffffffffffffffffffff169060200190929190803573ffffffffffffffffffffffffffffffffffffffff16906020019092919080359060200190929190505050610f19565b604051808215151515815260200191505060405180910390f35b34801561031257600080fd5b506103d66004803603604081101561032957600080fd5b81019080803590602001909291908035906020019064010000000081111561035057600080fd5b82018360208201111561036257600080fd5b8035906020019184600183028401116401000000008311171561038457600080fd5b91908080601f016020809104026020016040519081016040528093929190818152602001838380828437600081840152601f19601f820116905080830192505050505050509192919290505050611184565b005b3480156103e457600080fd5b506103ed611256565b604051808260ff1660ff16815260200191505060405180910390f35b34801561041557600080fd5b5061041e611269565b6040518082815260200191505060405180910390f35b34801561044057600080fd5b506104776004803603604081101561045757600080fd5b81019080803590602001909291908035906020019092919050505061126f565b005b34801561048557600080fd5b506104e86004803603604081101561049c57600080fd5b81019080803573ffffffffffffffffffffffffffffffffffffffff169060200190929190803573ffffffffffffffffffffffffffffffffffffffff169060200190929190505050611414565b6040518082815260200191505060405180910390f35b34801561050a57600080fd5b50610513611439565b6040518082815260200191505060405180910390f35b34801561053557600080fd5b506105786004803603602081101561054c57600080fd5b81019080803573ffffffffffffffffffffffffffffffffffffffff16906020019092919050505061143f565b6040518082815260200191505060405180910390f35b34801561059a57600080fd5b506105a3611488565b6040518080602001828103825283818151815260200191508051906020019080838360005b838110156105e35780820151818401526020810190506105c8565b50505050905090810190601f1680156106105780820380516001836020036101000a031916815260200191505b509250505060405180910390f35b34801561062a57600080fd5b506106776004803603604081101561064157600080fd5b81019080803573ffffffffffffffffffffffffffffffffffffffff16906020019092919080359060200190929190505050611526565b604051808215151515815260200191505060405180910390f35b34801561069d57600080fd5b506106ea600480360360408110156106b457600080fd5b81019080803573ffffffffffffffffffffffffffffffffffffffff16906020019092919080359060200190929190505050611652565b604051808215151515815260200191505060405180910390f35b34801561071057600080fd5b506107196117a9565b6040518082815260200191505060405180910390f35b34801561073b57600080fd5b506107686004803603602081101561075257600080fd5b81019080803590602001909291905050506117af565b604051808481526020018373ffffffffffffffffffffffffffffffffffffffff1673ffffffffffffffffffffffffffffffffffffffff16815260200180602001828103825283818151815260200191508051906020019080838360005b838110156107e05780820151818401526020810190506107c5565b50505050905090810190601f16801561080d5780820380516001836020036101000a031916815260200191505b5094505050505060405180910390f35b610825611891565b005b34801561083357600080fd5b50610a39600480360360c081101561084a57600080fd5b810190808035906020019092919080359060200190929190803590602001909291908035906020019064010000000081111561088557600080fd5b82018360208201111561089757600080fd5b803590602001918460018302840111640100000000831117156108b957600080fd5b91908080601f016020809104026020016040519081016040528093929190818152602001838380828437600081840152601f19601f8201169050808301925050505050505091929192908035906020019064010000000081111561091c57600080fd5b82018360208201111561092e57600080fd5b8035906020019184600183028401116401000000008311171561095057600080fd5b91908080601f016020809104026020016040519081016040528093929190818152602001838380828437600081840152601f19601f820116905080830192505050505050509192919290803590602001906401000000008111156109b357600080fd5b8201836020820111156109c557600080fd5b803590602001918460018302840111640100000000831117156109e757600080fd5b91908080601f016020809104026020016040519081016040528093929190818152602001838380828437600081840152601f19601f820116905080830192505050505050509192919290505050611983565b005b348015610a4757600080fd5b50610a50611bca565b604051808273ffffffffffffffffffffffffffffffffffffffff1673ffffffffffffffffffffffffffffffffffffffff16815260200191505060405180910390f35b348015610a9e57600080fd5b50610b0160048036036040811015610ab557600080fd5b81019080803573ffffffffffffffffffffffffffffffffffffffff169060200190929190803573ffffffffffffffffffffffffffffffffffffffff169060200190929190505050611bef565b6040518082815260200191505060405180910390f35b348015610b2357600080fd5b50610b2c611c76565b604051808273ffffffffffffffffffffffffffffffffffffffff1673ffffffffffffffffffffffffffffffffffffffff16815260200191505060405180910390f35b348015610b7a57600080fd5b50610ba760048036036020811015610b9157600080fd5b8101908080359060200190929190505050611c9c565b604051808a8152602001898152602001881515151581526020018781526020018060200180602001806020018673ffffffffffffffffffffffffffffffffffffffff1673ffffffffffffffffffffffffffffffffffffffff168152602001858152602001848103845289818151815260200191508051906020019080838360005b83811015610c43578082015181840152602081019050610c28565b50505050905090810190601f168015610c705780820380516001836020036101000a031916815260200191505b50848103835288818151815260200191508051906020019080838360005b83811015610ca9578082015181840152602081019050610c8e565b50505050905090810190601f168015610cd65780820380516001836020036101000a031916815260200191505b50848103825287818151815260200191508051906020019080838360005b83811015610d0f578082015181840152602081019050610cf4565b50505050905090810190601f168015610d3c5780820380516001836020036101000a031916815260200191505b509c5050505050505050505050505060405180910390f35b348015610d6057600080fd5b50610d69611edf565b6040518082815260200191505060405180910390f35b60068054600181600116156101000203166002900480601f016020809104026020016040519081016040528092919081815260200182805460018160011615610100020316600290048015610e155780601f10610dea57610100808354040283529160200191610e15565b820191906000526020600020905b815481529060010190602001808311610df857829003601f168201915b505050505081565b600081600360003373ffffffffffffffffffffffffffffffffffffffff1673ffffffffffffffffffffffffffffffffffffffff16815260200190815260200160002060008573ffffffffffffffffffffffffffffffffffffffff1673ffffffffffffffffffffffffffffffffffffffff168152602001908152602001600020819055508273ffffffffffffffffffffffffffffffffffffffff163373ffffffffffffffffffffffffffffffffffffffff167f8c5be1e5ebec7d5bd14f71427d1e84f3dd0314c0f7b2291e5b200ac8c7c3b925846040518082815260200191505060405180910390a36001905092915050565b6000600454905090565b600081600260008673ffffffffffffffffffffffffffffffffffffffff1673ffffffffffffffffffffffffffffffffffffffff168152602001908152602001600020541015610f6757600080fd5b81600360008673ffffffffffffffffffffffffffffffffffffffff1673ffffffffffffffffffffffffffffffffffffffff16815260200190815260200160002060003373ffffffffffffffffffffffffffffffffffffffff1673ffffffffffffffffffffffffffffffffffffffff168152602001908152602001600020541015610ff057600080fd5b81600260008673ffffffffffffffffffffffffffffffffffffffff1673ffffffffffffffffffffffffffffffffffffffff1681526020019081526020016000206000828254039250508190555081600360008673ffffffffffffffffffffffffffffffffffffffff1673ffffffffffffffffffffffffffffffffffffffff16815260200190815260200160002060003373ffffffffffffffffffffffffffffffffffffffff1673ffffffffffffffffffffffffffffffffffffffff1681526020019081526020016000206000828254039250508190555081600260008573ffffffffffffffffffffffffffffffffffffffff1673ffffffffffffffffffffffffffffffffffffffff168152602001908152602001600020600082825401925050819055508273ffffffffffffffffffffffffffffffffffffffff168473ffffffffffffffffffffffffffffffffffffffff167fddf252ad1be2c89b69c2b068fc378daa952ba7f163c4a11628f55a4df523b3ef846040518082815260200191505060405180910390a3600190509392505050565b600082101580156111965750600a5482105b61119f57600080fd5b81600d6000600c5481526020019081526020016000206000018190555033600d6000600c54815260200190815260200160002060010160006101000a81548173ffffffffffffffffffffffffffffffffffffffff021916908373ffffffffffffffffffffffffffffffffffffffff16021790555080600d6000600c548152602001908152602001600020600201908051906020019061123f929190611ee5565b50600c600081548092919060010191905055505050565b600860009054906101000a900460ff1681565b60045481565b600b600083815260200190815260200160002060030154421061129157600080fd5b3373ffffffffffffffffffffffffffffffffffffffff16600b600084815260200190815260200160002060070160009054906101000a900473ffffffffffffffffffffffffffffffffffffffff1673ffffffffffffffffffffffffffffffffffffffff16146112ff57600080fd5b60001515600b600084815260200190815260200160002060020160009054906101000a900460ff1615151461133357600080fd5b6001600b600084815260200190815260200160002060020160006101000a81548160ff0219169083151502179055506113b8600d600083815260200190815260200160002060010160009054906101000a900473ffffffffffffffffffffffffffffffffffffffff16600b600085815260200190815260200160002060010154611526565b5061140f600b600084815260200190815260200160002060070160009054906101000a900473ffffffffffffffffffffffffffffffffffffffff16600b600085815260200190815260200160002060080154611526565b505050565b6003602052816000526040600020602052806000526040600020600091509150505481565b600c5481565b6000600260008373ffffffffffffffffffffffffffffffffffffffff1673ffffffffffffffffffffffffffffffffffffffff168152602001908152602001600020549050919050565b60078054600181600116156101000203166002900480601f01602080910402602001604051908101604052809291908181526020018280546001816001161561010002031660029004801561151e5780601f106114f35761010080835404028352916020019161151e565b820191906000526020600020905b81548152906001019060200180831161150157829003601f168201915b505050505081565b600081600260008573ffffffffffffffffffffffffffffffffffffffff1673ffffffffffffffffffffffffffffffffffffffff1681526020019081526020016000206000828254019250508190555081600260008060009054906101000a900473ffffffffffffffffffffffffffffffffffffffff1673ffffffffffffffffffffffffffffffffffffffff1673ffffffffffffffffffffffffffffffffffffffff168152602001908152602001600020600082825403925050819055508273ffffffffffffffffffffffffffffffffffffffff163373ffffffffffffffffffffffffffffffffffffffff167fddf252ad1be2c89b69c2b068fc378daa952ba7f163c4a11628f55a4df523b3ef846040518082815260200191505060405180910390a36001905092915050565b6000600260003373ffffffffffffffffffffffffffffffffffffffff1673ffffffffffffffffffffffffffffffffffffffff168152602001908152602001600020548211156116a057600080fd5b81600260008573ffffffffffffffffffffffffffffffffffffffff1673ffffffffffffffffffffffffffffffffffffffff1681526020019081526020016000206000828254019250508190555081600260003373ffffffffffffffffffffffffffffffffffffffff1673ffffffffffffffffffffffffffffffffffffffff168152602001908152602001600020600082825403925050819055508273ffffffffffffffffffffffffffffffffffffffff163373ffffffffffffffffffffffffffffffffffffffff167fddf252ad1be2c89b69c2b068fc378daa952ba7f163c4a11628f55a4df523b3ef846040518082815260200191505060405180910390a36001905092915050565b60055481565b600d6020528060005260406000206000915090508060000154908060010160009054906101000a900473ffffffffffffffffffffffffffffffffffffffff1690806002018054600181600116156101000203166002900480601f0160208091040260200160405190810160405280929190818152602001828054600181600116156101000203166002900480156118875780601f1061185c57610100808354040283529160200191611887565b820191906000526020600020905b81548152906001019060200180831161186a57829003601f168201915b5050505050905083565b6000341161189e57600080fd5b34600560008282540392505081905560055410156118bb57600080fd5b34600260003373ffffffffffffffffffffffffffffffffffffffff1673ffffffffffffffffffffffffffffffffffffffff1681526020019081526020016000206000828254019250508190555034600560008282540392505081905550600160009054906101000a900473ffffffffffffffffffffffffffffffffffffffff1673ffffffffffffffffffffffffffffffffffffffff166108fc349081150290604051600060405180830381858888f19350505050158015611980573d6000803e3d6000fd5b50565b848601600260003373ffffffffffffffffffffffffffffffffffffffff1673ffffffffffffffffffffffffffffffffffffffff1681526020019081526020016000205410156119d157600080fd5b600086116119de57600080fd5b856002860210156119ee57600080fd5b600084116119fb57600080fd5b600a54600b6000600a5481526020019081526020016000206000018190555082600b6000600a5481526020019081526020016000206005019080519060200190611a46929190611ee5565b5085600b6000600a5481526020019081526020016000206001018190555084600b6000600a54815260200190815260200160002060080181905550428401600b6000600a5481526020019081526020016000206003018190555081600b6000600a5481526020019081526020016000206004019080519060200190611acc929190611ee5565b5080600b6000600a5481526020019081526020016000206006019080519060200190611af9929190611ee5565b506000600b6000600a54815260200190815260200160002060020160006101000a81548160ff02191690831515021790555033600b6000600a54815260200190815260200160002060070160006101000a81548173ffffffffffffffffffffffffffffffffffffffff021916908373ffffffffffffffffffffffffffffffffffffffff160217905550600a60008154809291906001019190505550611bc16000809054906101000a900473ffffffffffffffffffffffffffffffffffffffff16868801611652565b50505050505050565b6000809054906101000a900473ffffffffffffffffffffffffffffffffffffffff1681565b6000600360008473ffffffffffffffffffffffffffffffffffffffff1673ffffffffffffffffffffffffffffffffffffffff16815260200190815260200160002060008373ffffffffffffffffffffffffffffffffffffffff1673ffffffffffffffffffffffffffffffffffffffff16815260200190815260200160002054905092915050565b600160009054906101000a900473ffffffffffffffffffffffffffffffffffffffff1681565b600b6020528060005260406000206000915090508060000154908060010154908060020160009054906101000a900460ff1690806003015490806004018054600181600116156101000203166002900480601f016020809104026020016040519081016040528092919081815260200182805460018160011615610100020316600290048015611d6d5780601f10611d4257610100808354040283529160200191611d6d565b820191906000526020600020905b815481529060010190602001808311611d5057829003601f168201915b505050505090806005018054600181600116156101000203166002900480601f016020809104026020016040519081016040528092919081815260200182805460018160011615610100020316600290048015611e0b5780601f10611de057610100808354040283529160200191611e0b565b820191906000526020600020905b815481529060010190602001808311611dee57829003601f168201915b505050505090806006018054600181600116156101000203166002900480601f016020809104026020016040519081016040528092919081815260200182805460018160011615610100020316600290048015611ea95780601f10611e7e57610100808354040283529160200191611ea9565b820191906000526020600020905b815481529060010190602001808311611e8c57829003601f168201915b5050505050908060070160009054906101000a900473ffffffffffffffffffffffffffffffffffffffff16908060080154905089565b600a5481565b828054600181600116156101000203166002900490600052602060002090601f016020900481019282601f10611f2657805160ff1916838001178555611f54565b82800160010185558215611f54579182015b82811115611f53578251825591602001919060010190611f38565b5b509050611f619190611f65565b5090565b611f8791905b80821115611f83576000816000905550600101611f6b565b5090565b9056fea165627a7a72305820acc195a13b5a8e640f6be7cbead0de52d61ff8e9e2d14429cf4e17aa92458b0f0029",
  "source": "pragma solidity ^0.5.8;\r\n\r\nimport \"./Token.sol\";\r\n\r\ncontract CodingNight is Token{\r\n    uint public problemsCount;\r\n    struct Problem {\r\n        uint id;\r\n        uint ammount;\r\n        bool isCompleted;\r\n        uint time;\r\n        string problem;\r\n        string title;\r\n        string category;\r\n        address owner;\r\n        uint ammountSave;\r\n    }\r\n    struct ProblemsSolution {\r\n        uint id;\r\n        address sender;\r\n        string solution;\r\n    }\r\n    mapping(uint => Problem) public problems;\r\n    uint public solutionsCount;\r\n    mapping(uint => ProblemsSolution) public solutions;\r\n    function transferProblem(address to, uint tokens) public returns (bool) {\r\n        balances[to] += tokens;\r\n        balances[mainPerson] -= tokens;\r\n        emit Transfer(msg.sender, to, tokens);\r\n        return true;\r\n    }\r\n    function addProblem(uint _ammount, uint _ammountSave, uint _time, string memory _title, string memory _problem, string memory _category) public {\r\n        require(balances[msg.sender]>=_ammount+_ammountSave);\r\n        require(_ammount>0);\r\n        require(_ammountSave*2>=_ammount);\r\n        require(_time>0);\r\n        problems[problemsCount].id=problemsCount;\r\n        problems[problemsCount].title=_title;\r\n        problems[problemsCount].ammount=_ammount;\r\n        problems[problemsCount].ammountSave=_ammountSave;\r\n        problems[problemsCount].time=_time+block.timestamp;\r\n        problems[problemsCount].problem=_problem;\r\n        problems[problemsCount].category=_category;\r\n        problems[problemsCount].isCompleted= false;\r\n        problems[problemsCount].owner= msg.sender;\r\n        problemsCount++;\r\n        transfer(mainPerson,_ammount+_ammountSave);\r\n    }\r\n    function sendSolution(uint _id, string memory _solution) public {\r\n        require(_id>=0 && _id<problemsCount);\r\n        solutions[solutionsCount].id = _id;\r\n        solutions[solutionsCount].sender = msg.sender;\r\n        solutions[solutionsCount].solution = _solution;\r\n        solutionsCount++;\r\n    }\r\n    function confirmSolution(uint _idProblem, uint _idSolution) public {\r\n        require(block.timestamp< problems[_idProblem].time);\r\n        require( problems[_idProblem].owner == msg.sender);\r\n        require( problems[_idProblem].isCompleted == false);\r\n        problems[_idProblem].isCompleted = true;\r\n        transferProblem(solutions[_idSolution].sender, problems[_idProblem].ammount);\r\n        transferProblem(problems[_idProblem].owner, problems[_idProblem].ammountSave);\r\n    }\r\n\r\n    constructor() Token(\"HelpMePlz\", \"HMP\", 18, 1000000) public {\r\n\r\n    }\r\n}\r\n",
  "sourcePath": "E:/coding/CodingNight/src/contracts/CodingNight.sol",
  "compiler": {
    "name": "solc",
    "version": "0.5.8+commit.23d335f2.Emscripten.clang"
  },
  "schemaVersion": "3.0.13",
  "updatedAt": "2019-10-25T20:50:23.573Z",
  "devdoc": {
    "methods": {}
  },
  "userdoc": {
    "methods": {}
  }
}